:100000000C94B4000C94C8000C94C6000C94C60068
:100010000C94C6000C94C6000C94C6000C94C60048
:100020000C94C6000C94C6000C94C6000C94D3002B
:100030000C94C6000C94C6000C94C6000C94C60028
:100040000C94C6000C94C6000C94C6000C94C60018
:100050000C94C6000C94C6000C94C6000C94C60008
:100060000C94C6000C94C600808386898C8F929570
:10007000989C9FA2A5A8ABAEB0B3B6B9BCBFC1C493
:10008000C7C9CCCED1D3D5D8DADCDEE0E2E4E6E8ED
:10009000EAEBEDEFF0F2F3F4F6F7F8F9FAFBFBFC1C
:1000A000FDFDFEFEFEFFFFFFFFFFFFFFFEFEFDFD6D
:1000B000FCFCFBFAF9F8F7F6F5F4F2F1EFEEECEBF5
:1000C000E9E7E5E3E1DFDDDBD9D7D4D2CFCDCAC89C
:1000D000C5C3C0BDBAB8B5B2AFACA9A6A3A09D9A1E
:1000E0009794918E8A8784817E7B7875716E6B6818
:1000F00065625F5C595653504D4A4745423F3C3A12
:10010000373532302D2B28262422201E1C1A181693
:10011000141311100E0D0B0A09080706050403033A
:1001200002020101000000000000000101010202C2
:1001300003040405060708090B0C0D0F1012141513
:1001400017191B1D1F212325272A2C2E3133363842
:100150003B3E404346494C4F5154575A5D6063679C
:100160006A6D707376797C7F11241FBECFEFD8E063
:10017000DEBFCDBF21E0A0E0B1E001C01D92A13003
:10018000B207E1F70E94F0000C943C010C940000CF
:100190001F920F920FB60F9211242C980F900FBE42
:1001A0000F901F9018951F920F920FB60F92112467
:1001B0008F93EF93FF93E0910001F0E0E859FF4F38
:1001C000E491E093B300809100018F5F8093000180
:1001D000FF91EF918F910F900FBE0F901F90189588
:1001E000F894239A249A52985A98809169008D7FA6
:1001F0008093690080916900816080936900E89A2A
:100200008091B000877F8093B0008091B0008360C0
:100210008093B0008091B00080688093B00080919E
:10022000B0008F7B8093B0008091B1008460809398
:10023000B1008091B1008C7F8093B1001092B30027
:100240008091810088608093810080918100856029
:1002500080938100809181008D7F809381008FEF5A
:1002600090E0909389008093880080916F00826075
:0C02700080936F007894FFCFF894FFCFCC
:00000001FF
